:100000001FC039C038C00BC136C035C034C033C082
:1000100032C031C06FC12FC02EC02DC02CC02BC02C
:100020002AC029C028C031C037C03DC043C04AC023
:1000300050C056C05DC063C069C070C077C07FC08B
:1000400011241FBECFE5D4E0DEBFCDBF10E0A0E697
:10005000B0E0E8EAF3E002C005900D92A236B107E5
:10006000D9F710E0A2E6B0E001C01D92AA36B107B0
:10007000E1F79DD097C1C4CFE82FF0E0ED30F10556
:1000800008F065C0ED5EFF4F099494989298979898
:100090009598C798939848C092989798949A959AEB
:1000A000C79A939A41C0949892989598C7989698B1
:1000B000979A06C094989298979895989698C79A08
:1000C000939A3BC09298979893989698949A959AF9
:1000D00023C094989798959893989698929A1CC054
:1000E000949897989598C79893989698929A25C0BF
:1000F000949892989798939A959AC79A15C09498BD
:100100009298979893989598C79816C094989298B3
:100110009798939895989698C79A0FC094989598A1
:10012000C7989398929A979A969A07C09498959A96
:10013000C7989398929897989698C09A0895949A89
:100140009598C7989398929A979A969AC09A089574
:100150009C016AE070E012D1809366008091660095
:10016000281B3109C90164E670E008D16AE070E03B
:1001700005D16093650080916500281B3109C90194
:1001800068EE73E0FBD064E670E0F8D06093640042
:1001900080916400A901481B5109CA0160E177E21E
:1001A000EDD068EE73E0EAD060936300089587B302
:1001B000816C87BB81B38FEF81BBA59AAD9A909A72
:1001C000919AC69A8FB5806C8FBD8FB581608FBDB7
:1001D0008EB58A608EBDB99A1BBC1ABC86B186608A
:1001E00086B93E9A3D9A379A85B5886085BD85B5B2
:1001F000866085BD88E283BD89B7806889BF7894B1
:100200006E9ABC9A6F9A3699FECF85B1809367003B
:100210008091670090E09BBD8ABD369AF4CF1F9213
:100220000F920FB60F9211242F933F934F935F932A
:100230006F937F938F939F93AF93BF93EF93FF93AE
:10024000809160008230B1F0833018F48130A9F5DC
:1002500005C08330D9F0843081F524C0C69A8091DE
:100260006200882319F48091630001C08AE004DFF2
:10027000AD9823C0AD9A80916200882319F48091D3
:10028000640001C08BE0F8DE909817C0909A8091CE
:100290006200882319F48091650001C08CE0ECDED7
:1002A00091980BC0919A80916200882319F48091F3
:1002B000660001C081E0E0DEC698809160008F5F3B
:1002C0008093600080916000853018F081E0809319
:1002D0006000FF91EF91BF91AF919F918F917F91BE
:1002E0006F915F914F913F912F910F900FBE0F90A3
:1002F0001F9018951F920F920FB60F9211242F93F3
:100300003F934F935F936F937F938F939F93AF939D
:10031000BF93EF93FF939FB19F3F21F481E08093C0
:10032000620009C010926200943628F4909368002D
:10033000109269000FC084E6989FC001112420919B
:10034000680030916900820F931F90936900809339
:100350006800FEDE809167008FB9FF91EF91BF9139
:10036000AF919F918F917F916F915F914F913F914D
:100370002F910F900FBE0F901F901895AA1BBB1BBB
:1003800051E107C0AA1FBB1FA617B70710F0A61B95
:10039000B70B881F991F5A95A9F780959095BC01B6
:0803A000CD010895F894FFCF90
:0203A800010052
:00000001FF
