:1000000012C0FAC378C42AC029C028C027C026C09D
:1000100025C024C023C0CCC421C020C01FC01EC026
:100020001DC01CC01BC011241FBECFE5D4E0DEBF25
:10003000CDBF11E0A0E6B0E0E6E6FBE102C005902E
:100040000D92AE37B107D9F711E0AEE7B1E001C0CC
:100050001D92AA3BB107E1F789D583CDD1CFDC0151
:1000600020E040E050E098E115C0FD01E40FF51FED
:10007000E08138E08E2F8227F82FF17080FD29274C
:100080002695F13009F42068315011F0E695F2CF51
:100090004F5F5F4F4617570741F7822F0895AF9282
:1000A000BF92DF92EF92FF920F931F93DF93CF9354
:1000B000CDB7DEB760970FB6F894DEBF0FBECDBFE9
:1000C000D82E7A015901DE011196E0E6F0E080E1D8
:1000D00001900D928150E1F7FB018081482F50E0A3
:1000E000918180E0482B592BF0E1DF1679F4CA01A9
:1000F0008E7F33E0880F991F3A95E1F7FB01268147
:100100004CE050E0421B5109480F591F57FF07C0F0
:1001100081E0F7018083509541955F4F02C0F70160
:100120001082F8E2DF1699F4FB018481682F70E0F9
:10013000CB01807690708036910549F066FF02C051
:100140004E7F05C065FF02C04C7F01C0487FCA01D9
:1001500024E0969587952A95E1F7F5018083842F11
:100160008F70FE01E80FF11D8181F801808380E02E
:1001700060960FB6F894DEBF0FBECDBFCF91DF9172
:100180001F910F91FF90EF90DF90BF90AF90089577
:10019000882319F0709561957F4F442319F03095AD
:1001A00021953F4F621773071CF44FEF5FEF07C0B5
:1001B00040E050E02617370714F441E050E0CA0150
:1001C00008957F928F929F92AF92BF92CF92DF92CB
:1001D000EF92FF920F931F93DF93CF93CDB7DEB7CC
:1001E00029970FB6F894DEBF0FBECDBF782E6B01F6
:1001F0005A0149018EEB60E070E0B3D18E010F5FD0
:100200001F4F4AE0E42EF12CEC0EFD1E60D1F801E8
:1002100081938F01EE15FF05C9F77E010894E11C5B
:10022000F11CC70169E070E01ADF882311F083E058
:1002300007C0872DB701A6019501840130DF80E05A
:1002400029960FB6F894DEBF0FBECDBFCF91DF91D8
:100250001F910F91FF90EF90DF90CF90BF90AF90E4
:100260009F908F907F9008956F927F928F929F9230
:10027000AF92BF92CF92DF92EF92FF920F931F93B4
:10028000DF93CF93CDB7DEB729970FB6F894DEBFD3
:100290000FBECDBF6C015B014A013901DCD08EEB92
:1002A000B6015FD18E010F5F1F4F5AE0E52EF12C92
:1002B000EC0EFD1E0CD1F80181938F01EE15FF05A8
:1002C000C9F77E010894E11CF11CC70169E070E0E8
:1002D000C6DE882311F083E008C0F6018081B701F3
:1002E000A50194018301DBDE80E029960FB6F89426
:1002F000DEBF0FBECDBFCF91DF911F910F91FF9059
:10030000EF90DF90CF90BF90AF909F908F907F90B5
:100310006F9008951F93CF93DF93182FEB019BD01D
:1003200091D0882311F482E007C084E4BE0119D182
:10033000113009F08AD080E0DF91CF911F910895AC
:100340000F931F938C0187D084EBB8010AD181E011
:100350009BD0182F80D0111111E0812F1F910F9188
:1003600008950F931F93CF93DF938C01EB01F80156
:100370008081BE01AFD0F801808381508D3F28F489
:100380008881883211F0803191F7DF91CF911F91F0
:100390000F9108958F929F92AF92BF92CF92DF926A
:1003A000FF920F931F93DF93CF93CDB7DEB72997BB
:1003B0000FB6F894DEBF0FBECDBF8FEF898300E08C
:1003C00010E0E2E0CE2ED12CCC0EDD1E4E010894C2
:1003D000811C911C7AE0A72EB12CAC0EBD1E18C05A
:1003E000C401B601BEDF89818F3FC9F08E3FB9F0ED
:1003F000D601F80163E0EE0FFF1F6A95E1F7E657BB
:10040000FE4F8D918193AA15BB05D9F70F5F1F4F42
:10041000F02E8981882319F00430110509F78F2DFA
:1004200029960FB6F894DEBF0FBECDBFCF91DF91F6
:100430001F910F91FF90DF90CF90BF90AF909F9052
:100440008F90089583B380720895AD9AA59A089508
:10045000AD98A5980895AD98A59A80EC93E0019782
:10046000F1F78FB7F894A59890EB9A95F1F723B32D
:100470008FBF8CE393E00197F1F79D9902C081E073
:100480000895822F807208952FB7F894A59A92E06C
:100490009A95F1F78111A59898E29A95F1F79D9BAD
:1004A00080E098E79A95F1F7A5982FBF08950F93EC
:1004B0001F93182F08E0812F8170E6DF16958111B8
:1004C00010680150C1F7812F1F910F9108958FEF90
:1004D000EEDF0895DF92EF92FF920F931F93CF9379
:1004E000DF93E82EEB01B7DF882381F580EFDFDFB4
:1004F00080E4FF24182F98EFD92ED80E81E0C4DFB6
:10050000082F81E0C1DF882329F0002371F08EEFEE
:10051000F82E1EC0002349F41E1528F0888180FFA4
:1005200004C0E11611F0F12E01E0802FADDF8881CB
:1005300086958883002311F08068888311501D15EB
:10054000E9F6112329F02196812FD4CFFF24FA94C4
:100550008F2DDF91CF911F910F91FF90EF90DF9042
:1005600008950F931F93CF93DF93082FEB0173DF51
:10057000209741F085E59BDF18E0899198DF1150C5
:10058000E1F702C08CEC93DF802F91DFDF91CF91F8
:100590001F910F91089580FF02C0949A01C0949812
:1005A00081FF02C0959A01C0959882FF02C0969A79
:1005B00001C0969883FF02C0979A0895979808956E
:1005C0001F93182F929A82958F70E5DF9298929AD6
:1005D000812FE1DF929885E88A95F1F71F910895C0
:1005E0009398EEDF0895939AEBDF0895CF93DF930E
:1005F000EC0102C02196F7DF88818823D9F7DF91CB
:10060000CF9108956295660F660F607C680F862F04
:100610008068E6DF089581E0E3DF80EA9FE00197EC
:10062000F1F7089582E0DCDF80EA9FE00197F1F7BF
:1006300008951F93CF93DF938C9A8D9A8E9A8F9AF9
:100640008A9A8B9A80E395E70197F1F793989298AD
:1006500010E0C0E1D7E2929A83E09DDF9298CE014C
:100660000197F1F71F5F1330B1F7929A82E093DFA1
:10067000929880ED97E00197F1F788E2B1DF88E08A
:10068000AFDF81E0ADDF80EA9FE00197F1F786E020
:10069000A7DF8CE0A5DFDF91CF911F910895DF9355
:1006A000CF93CDB7DEB761970FB6F894DEBF0FBE1C
:1006B000CDBFBE016F5F7F4F4AE050E0F1D996DFBA
:1006C00061960FB6F894DEBF0FBECDBFCF91DF911C
:1006D000089590BD89B988E18AB986E880BD579AA6
:1006E00008955D9BFECF8CB90895EF92FF920F9312
:1006F0001F93609184017091850180918601909192
:100700008701F7D6209170003091710040917200FE
:100710005091730046D581D37B018C016093AA016F
:100720007093AB018093AC019093AD015D9BFECFC4
:10073000C801B70124E630E040E050E058D92CB9B8
:100740005D9BFECFC801B70124E630E040E050E0F9
:100750004ED96CB91F910F91FF90EF9008959C01B5
:1007600064E670E030D98FB9779BFECFC90164E6AB
:1007700070E029D96C596FB9779BFECF8FB108957E
:100780008FEF8FB9779BFECF8FB108958091AE0127
:100790002AE0829FC00111242091B301820F911D94
:1007A000DEDF08959091740080917500809374004D
:1007B000909375000895839902C023E001C020E062
:1007C000829902C081E0282790918901921B90FFB5
:1007D00009C0209389018091B90181509270890FDD
:1007E0008093B9010895E7DF8091B901982F917046
:1007F0009093B901859508951F920F920FB60F92AD
:1008000011242F933F934F935F936F937F938F9315
:100810009F93AF93BF93EF93FF9380917F018130BC
:1008200011F410927F0180918201813011F5809145
:10083000840190918501A0918601B0918701999BD7
:1008400015C00196A11DB11D80938401909385016F
:10085000A0938601B093870180519742A040B04099
:10086000C8F18FE097E2A0E0B0E02CC0999932C0C7
:100870000EC0B9DF8F3F19F0813061F510C0809153
:10088000840190918501A0918601B0918701009724
:10089000A105B105F9F00197A109B10913C0809133
:1008A000840190918501A0918601B09187018F30DC
:1008B00027E2920720E0A20720E0B20758F4019651
:1008C000A11DB11D8093840190938501A0938601A1
:1008D000B0938701FF91EF91BF91AF919F918F915D
:1008E0007F916F915F914F913F912F910F900FBE2C
:1008F0000F901F9018951F920F920FB60F92112410
:100900002F933F934F935F936F937F938F939F9317
:10091000AF93BF93EF93FF93809182018230B9F53B
:1009200080917F01813011F410927F015CDF8F3F55
:1009300019F0813061F510C080918401909185019A
:10094000A0918601B09187010097A105B105F9F04A
:100950000197A109B10913C080918401909185018B
:10096000A0918601B09187018F3027E2920720E0A5
:10097000A20720E0B20758F40196A11DB11D809393
:10098000840190938501A0938601B0938701FF9124
:10099000EF91BF91AF919F918F917F916F915F91F7
:1009A0004F913F912F910F900FBE0F901F90189570
:1009B0001F920F920FB60F921124EF92FF920F9396
:1009C0001F932F933F934F935F936F937F938F93D7
:1009D0009F93AF93BF93EF93FF93909180019923DF
:1009E00019F0923009F0A7C08CB18B3F09F494C084
:1009F0008C3F30F4813371F0823309F0A2C024C0FF
:100A00008D3F09F494C08D3F08F48AC08E3F09F0F1
:100A100098C068C021E020937F0110928401109259
:100A20008501109286011092870180E090E0A0E895
:100A3000BFE38093700090937100A0937200B09315
:100A40007300209380017DC0923009F07AC010922B
:100A50007F01609184017091850180918601909160
:100A6000870147D57B018C016091B70170E080E080
:100A700090E03FD59B01AC01C801B70192D36093D0
:100A8000700070937100809372009093730020E067
:100A900030E040E85FE357D4882364F480E090E0DE
:100AA000A0E8BFE38093700090937100A093720060
:100AB000B0937300E199FECF4091700050917100A6
:100AC000609172007091730081E090E022D81092E2
:100AD0008401109285011092860110928701109274
:100AE00080012FC0809174009091750090937400E4
:100AF000809375008091B801813019F41092B8018B
:100B000003C081E08093B801E199FECF85E090E0D9
:100B10006091B801F1D715C081E08093820104C0D3
:100B200082E08093820181E0809388010AC081E0A5
:100B30008093830106C08CB18093B70182E08093DB
:100B40008001FF91EF91BF91AF919F918F917F9124
:100B50006F915F914F913F912F911F910F91FF9056
:100B6000EF900F900FBE0F901F901895EF92FF928D
:100B70000F931F93CF93DF9387B3886287BB8DB1A9
:100B800083658DB984B3897F84BB8F9881B3837F5C
:100B900081BB82B38C6082BB85B7856085BF8BB714
:100BA000806C8BBF789483E390E093DDE199FECF76
:100BB00081E090E09CD76093700070937100809307
:100BC00072009093730029D161506A3F60F080E019
:100BD00090E0A0E8BFE38093700090937100A09331
:100BE0007200B0937300E199FECF85E090E077D773
:100BF0008093B801823010F01092B8018091B80152
:100C0000813041F49091740080917500809374005C
:100C100090937500E199FECF80E090E060D78093DB
:100C2000820190E09CDD80E29EE428EC30E0F90156
:100C30003197F1F70197D9F7809182018150823085
:100C400018F081E080938201A5DB609170007091C3
:100C500071008091720090917300DFD0DC01CB01B4
:100C60007EDD80E29EE428EC30E0F9013197F1F777
:100C70000197D9F700E010E0FF24FA9488E6E82E07
:100C8000C8ECD0E0002349F4112339F481E060E09E
:100C900070E040DB01E011E020C08AE891E066EB03
:100CA00071E04EEA51E023EB31E0DEDA8823A9F46B
:100CB000809174005D9BFECF8CB98091B6015D9BE5
:100CC000FECF8CB98091AE015D9BFECF8CB9809137
:100CD000B3015D9BFECF8CB900E082E991E061EB4E
:100CE00071E04FEA51E025EB31E0BEDA8823A9F448
:100CF000809175005D9BFECF8CB98091B1015D9BA9
:100D0000FECF8CB98091AF015D9BFECF8CB98091F5
:100D1000B5015D9BFECF8CB910E080917F018823E7
:100D2000C1F4609184017091850180918601909158
:100D30008701DFD3209170003091710040917200E3
:100D4000509173002ED269D0DC01CB0108DD682FF1
:100D500004C0FFB8779BFECF6FB180917E018F5F9B
:100D600080937E01863088F05D9BFECF70E08827FF
:100D700077FD8095982F12D323E333E343E250E4C9
:100D800010D24BD06CB910927E0190B39095991F00
:100D90009927991F20E080918001882309F421E0A0
:100DA0009223292F30E040E050E080918101882398
:100DB00011F441E050E024233523232B21F48091CA
:100DC0008301813091F45D9BFECFECB88EDC1092F4
:100DD0008401109285011092860110928701109271
:100DE000830181E08093810102C010928101809192
:100DF0008801813049F410928801E199FECF80E0AA
:100E000090E06091820178D688EE93E0FE01319700
:100E1000F1F7019709F436CFF9CFEF92FF920F93D4
:100E20001F937B018C0120E030E040E05FE460D262
:100E300088237CF0C801B70120E030E040E05FE4A7
:100E40005ED106D39B01AC01205030404040504859
:100E500005C0C801B701FCD29B01AC01B901CA01B0
:100E60001F910F91FF90EF900895A0E0B0E0EAE3AA
:100E7000F7E0DFC5DC012B01FA019C91923008F408
:100E800039C1EB018881823008F433C1943069F4B0
:100E9000843009F02FC111969C9111978981981780
:100EA00009F428C1A6E7B0E025C1843009F421C1C6
:100EB0008230A9F4923009F01DC19A01AD0188E099
:100EC000EA010990AE01E90109929E018150C1F742
:100ED000E201898111969C918923818308C1923016
:100EE00009F407C112962D903C901397EB018A816B
:100EF0009B811496AD90BD90CD90DC901797EC80BF
:100F0000FD800E811F819101281B390BB90137FF2C
:100F100004C066277727621B730B603271050CF0E3
:100F200061C0121613066CF537014801062E04C085
:100F300096948794779467940A94D2F721E030E0EE
:100F400040E050E004C0220F331F441F551F6A9534
:100F5000D2F721503040404050402E213F214023C5
:100F60005123211531054105510521F021E030E0E3
:100F700040E050E079018A01E628F728082919297C
:100F80003CC0232BD1F1260E371E35014601062E1B
:100F900004C096948794779467940A94D2F721E0DA
:100FA00030E040E050E004C0220F331F441F551FC3
:100FB0006A95D2F721503040404050402A213B21D1
:100FC0004C215D21211531054105510521F021E01C
:100FD00030E040E050E059016A01A628B728C8284F
:100FE000D9280BC0821593052CF01C01AA24BB2420
:100FF000650103C0EE24FF24870111969C91D20164
:1010000011968C91981709F445C0992339F0A801DD
:1010100097012A193B094C095D0906C0A6019501F3
:101020002E193F09400B510B57FD08C01182338226
:10103000228224833583468357831DC081E08183C8
:101040003382228288279927DC01821B930BA40B11
:10105000B50B84839583A683B7830DC0220F331FFE
:10106000441F551F24833583468357838281938190
:101070000197938382832481358146815781DA01E8
:10108000C9010197A109B1098F5F9F4FAF4FBF43BE
:1010900028F30BC0918333822282EA0CFB1C0C1DC7
:1010A0001D1DE482F5820683178383E080832481FB
:1010B00035814681578157FF1AC0C901AA2797FD7C
:1010C000A095BA2F81709070A070B070569547951A
:1010D00037952795822B932BA42BB52B848395834F
:1010E000A683B78382819381019693838283DF01F4
:1010F00001C0D201CD01CDB7DEB7E2E1B6C4A0E2B6
:10110000B0E0E4E8F8E0A1C469837A838B839C8330
:101110002D833E834F835887E9E0EE2EF12CEC0EB1
:10112000FD1ECE010196B7017DD38E010F5E1F4FCC
:10113000CE010596B80176D38A8991E089278A8BFA
:10114000C701B801AE01475E5F4F8FDE96D2A09611
:10115000E6E097C4A0E2B0E0EFEAF8E076C4698385
:101160007A838B839C832D833E834F835887F9E05A
:10117000EF2EF12CEC0EFD1ECE010196B70152D3DD
:101180008E010F5E1F4FCE010596B8014BD3C701EC
:10119000B801AE01475E5F4F68DE6FD2A096E6E011
:1011A00070C4A8E1B0E0E6EDF8E04BC469837A834F
:1011B0008B839C832D833E834F835887B9E0EB2E2E
:1011C000F12CEC0EFD1ECE010196B7012BD38E0142
:1011D0000F5E1F4FCE010596B80124D3298522301A
:1011E00008F47EC03989323010F4B8017CC08A8599
:1011F0009A8989278A87243011F0223031F4231705
:1012000009F06EC066E770E06EC0343039F41D86B8
:101210001E861F86188A1C861B8604C0323021F465
:1012200084E08987B7015FC02B853C858B899C89C9
:10123000281B390B3C872B87ED84FE840F8518898A
:10124000AD88BE88CF88D88CEA14FB040C051D0538
:1012500040F4EE0CFF1C001F111F215030403C8752
:101260002B8720E030E040E050E080E090E0A0E01C
:10127000B0E460E070E0EA14FB040C051D0540F0EA
:10128000282B392B4A2B5B2BEA18FB080C091D096C
:10129000B695A79597958795EE0CFF1C001F111F1B
:1012A0006F5F7F4F6F31710531F7DA01C9018F77B9
:1012B0009070A070B07080349105A105B10561F403
:1012C00027FD0AC0E114F1040105110529F0205C95
:1012D0003F4F4F4F5F4F20782D873E874F87588B6A
:1012E000BE01675F7F4FCB01C8D16896EAE0C5C3F6
:1012F000A8E1B0E0EDE7F9E0A8C369837A838B83C6
:101300009C832D833E834F83588789E0E82EF12C00
:10131000EC0EFD1ECE010196B70184D28E010F5E48
:101320001F4FCE010596B8017DD28985823038F0F5
:101330008989823020F0C701B801ECD201C08FEF5B
:101340006896E6E09EC3A8E1B0E0E8EAF9E07DC374
:1013500069837A838B839C832D833E834F83588755
:1013600089E0E82EF12CEC0EFD1ECE010196B701AE
:1013700059D28E010F5E1F4FCE010596B80152D291
:101380008985823038F08989823020F0C701B80120
:10139000C1D201C081E06896E6E073C3A8E0B0E086
:1013A000E3EDF9E04FC39B01AC0183E08983DA01EF
:1013B000C9018827B7FD83959927AA27BB27B82E8F
:1013C000211531054105510519F482E0898339C0A1
:1013D0008823A9F0203080E0380780E0480780E8C3
:1013E000580729F460E070E080E09FEC2EC0EE2406
:1013F000FF248701E21AF30A040B150B02C07901DE
:101400008A018EE1C82ED12CDC82CB82ED82FE8255
:101410000F831887C801B701E1D001971816190684
:1014200084F4082E04C0EE0CFF1C001F111F0A9448
:10143000D2F7ED82FE820F831887C81AD90ADC82A0
:10144000CB82BA82CE01019618D12896E9E016C364
:10145000ACE0B0E0EDE2FAE0FCC269837A838B8312
:101460009C83CE010196BE016B5F7F4FDBD18D81E6
:10147000823061F1823050F1843021F48E818823F2
:1014800051F12EC02F81388537FD20C06E812F315C
:1014900031051CF06623F9F023C08EE190E0821B39
:1014A000930B29853A854B855C8504C056954795F5
:1014B000379527958A95D2F76623B1F050954095D8
:1014C000309521953F4F4F4F5F4F0EC020E030E0E9
:1014D00040E050E009C02FEF3FEF4FEF5FE704C05F
:1014E00020E030E040E050E8B901CA012C96E2E08B
:1014F000CCC2A8E0B0E0EEE7FAE0A3C27B018C0129
:10150000611571058105910519F482E089835FC039
:1015100083E089838EE1C82ED12CDC82CB82ED82E0
:10152000FE820F831887C801B70158D0FC0131979C
:10153000F7FF3BC0222733272E1B3F0B57016801C3
:10154000022E04C0D694C794B794A7940A94D2F7F5
:1015500040E050E060E070E081E090E0A0E0B0E0CA
:1015600004C0880F991FAA1FBB1F2A95D2F70197A5
:10157000A109B1098E219F21A023B1230097A105C4
:10158000B10521F041E050E060E070E04A295B29BC
:101590006C297D294D835E836F8378878EE190E08F
:1015A0008E1B9F0B9C838B8312C0309781F00E2E75
:1015B00004C0EE0CFF1C001F111F0A94D2F7ED822D
:1015C000FE820F831887CE1ADF0ADC82CB821A8252
:1015D000CE01019652D02896EAE04FC2EF92FF92D8
:1015E0000F931F937B018C0180E0E81680E0F806E2
:1015F00081E0080780E0180788F48FEFE816F1040F
:101600000105110531F028F088E090E0A0E0B0E09D
:1016100017C080E090E0A0E0B0E012C080E0E816E3
:1016200080E0F80680E0080781E0180728F088E1EC
:1016300090E0A0E0B0E004C080E190E0A0E0B0E085
:1016400020E230E040E050E0281B390B4A0B5B0BF6
:1016500004C016950795F794E7948A95D2F7F70199
:10166000E258FF4F8081281B310941095109C90106
:101670001F910F91FF90EF900895DF92EF92FF92EC
:101680000F931F93FC01E480F58006811781D180C0
:101690008081823048F480E090E0A0E1B0E0E82A68
:1016A000F92A0A2B1B2BA5C0843009F49FC0823075
:1016B00021F4EE24FF24870105C0E114F1040105A3
:1016C000110519F4E0E0F0E096C0628173819FEFAC
:1016D000623879070CF05BC022E83FEF261B370B1E
:1016E0002A3131052CF020E030E040E050E02AC003
:1016F000B801A701022E04C07695679557954795C6
:101700000A94D2F781E090E0A0E0B0E004C0880F36
:10171000991FAA1FBB1F2A95D2F70197A109B109EA
:101720008E219F21A023B1230097A105B10521F0AF
:1017300081E090E0A0E0B0E09A01AB01282B392BCA
:101740004A2B5B2BDA01C9018F779070A070B070C3
:1017500080349105A105B10539F427FF09C0205C4B
:101760003F4F4F4F5F4F04C0215C3F4F4F4F5F4F84
:10177000E0E0F0E02030A0E03A07A0E04A07A0E473
:101780005A0710F0E1E0F0E079018A0127C06038E3
:10179000710564F5FB01E158FF4FD801C7018F7750
:1017A0009070A070B07080349105A105B10539F436
:1017B000E7FE0DC080E490E0A0E0B0E004C08FE35D
:1017C00090E0A0E0B0E0E80EF91E0A1F1B1F17FF13
:1017D00005C016950795F794E794319687E016951E
:1017E0000795F794E7948A95D1F705C0EE24FF2476
:1017F0008701EFEFF0E06E2F679566276795902FD2
:101800009F77D794DD24D7948E2F8695492F462B2A
:10181000582F5D29B701CA011F910F91FF90EF90DA
:10182000DF900895FC01DB01408151812281622F0C
:101830006F7770E0221F2227221F9381892F880F44
:10184000822B282F30E0991F9927991F11969C937E
:10185000119721153105A9F541155105610571054E
:1018600011F482E037C082E89FEF13969C938E9329
:1018700012979A01AB0167E0220F331F441F551FD7
:101880006A95D1F783E08C930DC0220F331F441F5C
:10189000551F12968D919C911397019713969C93C7
:1018A0008E931297203080E0380780E0480780E46C
:1018B000580758F314962D933D934D935C931797C7
:1018C00008952F3F310579F44115510561057105E2
:1018D00019F484E08C93089564FF03C081E08C9335
:1018E00012C01C9210C02F57304013963C932E9379
:1018F000129783E08C9387E0440F551F661F771F74
:101900008A95D1F7706414964D935D936D937C9393
:10191000179708951F93DC01FB019C91923008F406
:1019200047C08081823008F443C0943051F411964E
:101930001C91843099F58181682F70E0611B7109D9
:101940003FC0843021F0923031F48230B9F181818E
:10195000882389F12DC011961C9111978230F1F0E6
:1019600081811817D9F412962D913C911397828199
:1019700093818217930794F028173907BCF01496C7
:101980008D919D910D90BC91A02D24813581468132
:101990005781281739074A075B0718F4112341F0CC
:1019A0000AC082179307A407B50740F4112319F062
:1019B00061E070E005C06FEF7FEF02C060E070E0B3
:1019C000CB011F910895AA1BBB1B51E107C0AA1FA1
:1019D000BB1FA617B70710F0A61BB70B881F991FD0
:1019E0005A95A9F780959095BC01CD010895A1E283
:1019F0001A2EAA1BBB1BFD010DC0AA1FBB1FEE1F89
:101A0000FF1FA217B307E407F50720F0A21BB30BD3
:101A1000E40BF50B661F771F881F991F1A9469F74F
:101A200060957095809590959B01AC01BD01CF01AB
:101A300008952F923F924F925F926F927F928F9272
:101A40009F92AF92BF92CF92DF92EF92FF920F934D
:101A50001F93CF93DF93CDB7DEB7CA1BDB0B0FB657
:101A6000F894DEBF0FBECDBF09942A883988488814
:101A70005F846E847D848C849B84AA84B984C884AA
:101A8000DF80EE80FD800C811B81AA81B981CE0FA1
:101A9000D11D0FB6F894DEBF0FBECDBFED01089586
:101AA000FB019F01E8944230BCF04532ACF44A306F
:101AB00029F497FB1EF4909581959F4F642F77270B
:101AC00082DF805D8A330CF0895D8193CB010097C2
:101AD000A9F716F45DE251931082C90122C0E19981
:101AE000FECF9FBB8EBBE09A99278DB30895A6E1E8
:101AF000B0E044E050E027C0262FE199FECF9FBB25
:101B00008EBB2DBB0FB6F894E29AE19A0FBE0196F8
:101B10000895242FF2DF252FF0DF00C0EDDF272FFF
:101B2000ECCFDC01FC01672F71917723E1F732974D
:101B300004C07C916D9370836291AE17BF07C8F3A8
:101B40000895DC01CB01FC01E199FECF06C0FFBB8B
:101B5000EEBBE09A31960DB20D9241505040B8F76D
:061B60000895F894FFCF88
:101B66000001010202030404050606070708090925
:101B76000000803F656700000000000000000001D3
:101B86000202030303030404040404040404050515
:101B960005050505050505050505050505050606ED
:101BA60006060606060606060606060606060606CF
:101BB60006060606060606060606060606060707BD
:101BC600070707070707070707070707070707079F
:101BD600070707070707070707070707070707078F
:101BE600070707070707070707070707070707077F
:101BF600070707070707070707070707070708086D
:101C0600080808080808080808080808080808084E
:101C1600080808080808080808080808080808083E
:101C2600080808080808080808080808080808082E
:101C3600080808080808080808080808080808081E
:101C4600080808080808080808080808080808080E
:101C560008080808080808080808080808080808FE
:101C660008080808080808080808080808080808EE
:0E1C76000808080808080808080808080808F0
:00000001FF
